S0180000536D6172742043616C63756C61746F722E73726563DB
S11300000C942A000C9447000C9447000C9447006D
S11300100C9447000C9447000C9447000C94470040
S11300200C9447000C9447000C9447000C94470030
S11300300C9447000C9447000C9447000C94470020
S11300400C9447000C9447000C9447000C94470010
S11300500C94470011241FBECFE5D8E0DEBFCDBF0E
S113006010E0A0E6B0E0E6EEF1E102C005900D92EA
S1130070A239B107D9F710E0A2E9B0E001C01D929E
S1130080A239B107E1F70E9449000C94F1080C94DD
S11300900000CF93DF93CDB7DEB76B970FB6F8941C
S11300A0DEBF0FBECDBFDE011196E0E6F0E080E1D9
S11300B001900D928150E1F7198A0E940E050E9469
S11300C07403EE241D8A1E8A1F8A188EBB24AA2458
S11300D099248824CC24DD2466240F2EF1E14F2EAC
S11300E05524F02D4C0E5D1ECE0101969B8B8A8B00
S11300F00F2EF4E27F2EF02D042DF52C898F9A8F8C
S11301001C8A9FE09E15B0F110E0802F9F2D0E9465
S1130110F40189898436C9F38FE79AE1A6E0815016
S11301209040A040E1F700C000008989833279F053
S1130130E1E0F0E0EC0FFD1FEE0DF11D80830E9465
S1130140AD0289898D3309F449C1833279F481E0A0
S11301500E941003E98DFA8D7192E415F505E1F71B
S1130160BC88AB2C9B2C8B2CEB2C09C0E3949FE01C
S11301709E1528F41981143229F4EE24B8C01130E4
S113018021F6F8CF22243324689421F82C0E3D1E46
S1130190EE24802F0E2DE82E812F80538A3088F490
S11301A0C601880F991FCC0CDD1CCC0CDD1CCC0CBB
S11301B0DD1CC80ED91EC10ED11CA0EDBFEFCA0EA6
S11301C0DB1E1B3249F01D3239F01A3229F01F327E
S11301D019F01D3309F07BC08B2D9A2DA92DB82D54
S11301E0BC01CD0120E030E0A9010E942207882350
S11301F051F4B60180E090E00E94BA07B62EA72E13
S1130200982E892E61C0BBE26B1679F0B61528F0E2
S1130210EAE26E1609F058C030C0FDE26F16C9F06C
S11302208FE2681609F050C03CC0B60180E090E04F
S11302300E94BA079B01AC018B2D9A2DA92DB82DD4
S1130240BC01CD010E94BE06B62EA72E982E892E83
S11302503BC0B60180E090E00E94BA079B01AC016C
S11302608B2D9A2DA92DB82DBC01CD010E94BD0660
S1130270B62EA72E982E892E27C0B60180E090E0D6
S11302800E94BA079B01AC018B2D9A2DA92DB82D84
S1130290BC01CD010E946C08B62EA72E982E892E83
S11302A013C0B60180E090E00E94BA079B01AC0144
S11302B08B2D9A2DA92DB82DBC01CD010E942607A6
S11302C0B62EA72E982E892E612ECC24DD240F5F06
S11302D0003151F0D1011D911D01143209F05CCFA0
S11302E08E2DE02E082F03C08E2DE02E082F81E0E6
S11302F060E00E94A2038B2D9A2DA92DB82DBC017C
S1130300CD0120E030E0A9010E94220788231CF5DA
S11303108DE20E94AD028B2D9A2DA92DB82DBC0122
S1130320CD010E948E0790958095709561957F4FC1
S11303308F4F9F4F0E94BA07B62EA72E982E892E54
S1130340862F9A2DA92DB82DBC01CD010E948E07B0
S11303500E94160430C08B2D9A2DA92DB82DBC01F6
S1130360CD010E948E07162F372E282E9B8F0E94B8
S1130370BA079B01AC018B2D9A2DA92DB82DBC0178
S1130380CD010E94BD0620E030E048EC52E40E941A
S11303906C08462F572F682F792FCB01BA010E9482
S11303A08E076D8B7E8B8F8B988F612F732D822D93
S11303B09B8D0E9416048D899E89AF89B88D009704
S11303C0A105B10509F49DCE8EE20E94AD026D89AE
S11303D07E898F89988D0E94160493CEE39411E050
S11303E0C6CE0E94110508952F923F924F925F92BC
S11303F06F927F928F929F92AF92BF92CF92DF9231
S1130400EF92FF920F931F93CF93DF93CDB7DEB795
S113041027970FB6F894DEBF0FBECDBF1C0119821B
S1130420009709F46DC084E6F10180830F2EF8E78C
S1130430AF2EF0E0BF2EF02D0F2EFCE78F2EF0E054
S11304409F2EF02D662477243D822C827F826E823B
S113045015019B828A82F5018081F401608140E06C
S11304600E941F050F2EF0E7EF2EF0E0FF2EF02D77
S11304700F2EF4E7CF2EF0E0DF2EF02D00E010E099
S1130480F60161916F01F70181917F01AE014F5F28
S11304905F4F0E94B5058981882381F48E819F81F5
S11304A0880F991F880F991F800F911F80589F4FA5
S11304B0FC018081EC81FD81808305C00F5F1F4FAB
S11304C004301105E9F60894A11CB11C0894811CA0
S11304D0911CF1018081EA81FB81608141E00E94ED
S11304E01F05EC81FD818081843661F40894611CD0
S11304F0711CF4E06F16710409F0A8CF80E003C00A
S113050081E001C080E027960FB6F894DEBF0FBEED
S1130510CDBFDF91CF911F910F91FF90EF90DF90AE
S1130520CF90BF90AF909F908F907F906F905F908F
S11305304F903F902F90089580E060E041E00E944A
S11305401F0589EF90E00197F1F700C0000080E0FB
S113055060E040E00E941F050895CF93C82F80E01B
S113056062E041E00E941F0580E061E040E00E94FB
S11305701F054C2F42954F70417080E064E00E944B
S11305801F054C2F429546954770417080E065E009
S11305900E941F054C2F4295469546954370417025
S11305A080E066E00E941F054C2F441F4427441F2F
S11305B080E067E00E941F050E949C0280E062E0E8
S11305C041E00E941F0580E061E040E00E941F05B9
S11305D04C2F417080E064E00E941F054C2F46952B
S11305E0417080E065E00E941F054C2F46954695BA
S11305F0417080E066E00E941F05C695C695C695C9
S11306004C2F417080E067E00E941F050E949C020D
S113061087EB9BE00197F1F700C00000CF910895AC
S1130620CF93C82F80E062E040E00E941F0580E085
S113063061E040E00E941F054C2F42954F704170CD
S113064080E064E00E941F054C2F42954695477058
S1130650417080E065E00E941F054C2F429546954D
S113066046954370417080E066E00E941F054C2F60
S1130670441F4427441F80E067E00E941F050E9436
S11306809C0280E062E040E00E941F0580E061E09F
S113069040E00E941F054C2F417080E064E00E94FE
S11306A01F054C2F4695417080E065E00E941F05B0
S11306B04C2F46954695417080E066E00E941F05E8
S11306C0C695C695C6954C2F417080E067E00E94A0
S11306D01F050E949C0287EB9BE00197F1F700C085
S11306E0000080E0CF9108958FE39FE10197F1F737
S11306F000C0000082E00E94100388E20E94100300
S113070089EF90E00197F1F700C000008CE00E94AF
S1130710100389EF90E00197F1F700C0000081E039
S11307200E94100383EF91E00197F1F700C00000ED
S113073086E00E94100385ED96E00197F1F700C072
S113074000000895823098F4603198F4882319F0F9
S1130750813089F406C0862F80580E94100380E0FF
S11307600895862F80540E94100380E0089581E04C
S1130770089581E0089580E00895CF93DF93EC011C
S1130780009751F08881882349F021960E94AD0298
S113079089918823D9F703C081E001C080E0DF910B
S11307A0CF910895DF92EF92FF920F931F93CF930F
S11307B0DF93EC01F62EE42ED22E009741F187E070
S11307C0861738F191E0941730F18FE0821728F101
S11307D0862F880F880F880F805C0E9410038E017B
S11307E0085F1F4F89910E94AD0281EE94E001974A
S11307F0F1F700C00000C017D107A1F78E2D6D2DB1
S11308000E94A2038F2D0E94AD0280E007C081E008
S113081005C081E003C081E001C081E0DF91CF9198
S11308201F910F91FF90EF90DF9008958F929F9208
S1130830AF92BF92FF920F931F93CF93DF93CDB7E5
S1130840DEB72F970FB6F894DEBF0FBECDBF8B0176
S11308509C01611571058105910521F480E30E94D5
S1130860AD0233C0FF240F2EFAE08F2EF0E09F2E4E
S1130870F0E0AF2EF0E0BF2EF02DC901B801A501C4
S113088094010E94CF0889019A01E1E0F0E0EC0FA5
S1130890FD1FEF0DF11D6083F39401151105210572
S11308A0310559F71F2D115082F0E12FFF27E7FD85
S11308B0F09581E090E08C0F9D1FE80FF91F808177
S11308C0805D0E94AD02115082F72F960FB6F89406
S11308D0DEBF0FBECDBFDF91CF911F910F91FF906F
S11308E0BF90AF909F908F900895DF92EF92FF9208
S11308F00F931F93CF93DF9383E50E94AD0281E0B2
S113090061E00E94A20385E40E94AD0280E062E0FF
S11309100E94A20389E40E94AD0281E063E00E9488
S1130920A20386E40E94AD028FE493EC0197F1F7F1
S113093000C0000080E10E941003DD24C4E0D0E088
S1130940EE24E39480E00E94AD02DD2031F48D2F8B
S11309506C2F0E94A203DE2C06C0DE25CF5F8D2FF4
S11309606C2F0E94A20386E40E94AD0287EA91E6FE
S11309700197F1F700C000000F2EFEEFFF2EF02DBF
S1130980FC0E8D2F6F2D0E94A20380E00E94AD0209
S11309901D2F1E256C2F6150812F0E94A20389E414
S11309A00E94AD0287EA91E60197F1F700C00000CA
S11309B00C2F0350812F602F0E94A20380E00E941D
S11309C0AD028D2F6F2D0E94A20385E40E94AD021B
S11309D087EA91E60197F1F700C000006C2F64509C
S11309E08D2F0E94A20380E00E94AD02812F602F10
S11309F00E94A20383E50E94AD0287EA91E6019773
S1130A00F1F700C00000C33108F49CCFDF91CF910F
S1130A101F910F91FF90EF90DF9008950E941105B0
S1130A2008959FEF9ABB8FEB87BB8FE084BB20E8D0
S1130A3021BB1BBA20E128BB95BB82BB089584303F
S1130A4008F08BC0683008F08AC0423008F089C0D2
S1130A50813041F1813038F0823009F441C0833073
S1130A6009F081C05BC0413071F42BB381E090E0A8
S1130A70AC0102C0440F551F6A95E2F7BA01622B1C
S1130A806BBB80E008952BB381E090E0AC0102C021
S1130A90440F551F6A95E2F7BA01609562236BBB58
S1130AA080E00895413069F448B321E030E0C901A1
S1130AB002C0880F991F6A95E2F7842B88BB80E0F7
S1130AC0089528B381E090E0AC0102C0440F551FA3
S1130AD06A95E2F7BA016095622368BB80E00895E5
S1130AE0413069F445B321E030E0C90102C0880F08
S1130AF0991F6A95E2F7842B85BB80E0089525B39E
S1130B0081E090E0AC0102C0440F551F6A95E2F702
S1130B10BA016095622365BB80E00895413071F4A9
S1130B2022B381E090E0AC0102C0440F551F6A95E6
S1130B30E2F7BA01622B62BB80E0089522B381E040
S1130B4090E0AC0102C0440F551F6A95E2F7BA0168
S1130B506095622362BB80E0089581E0089581E09E
S1130B60089581E0089580E00895843008F049C034
S1130B70683008F048C04115510509F446C0813079
S1130B80B1F0813030F0823001F1833009F03FC0A0
S1130B902AC089B390E09C0102C0359527956A95D7
S1130BA0E2F7B9016170FA01608380E0089586B3C9
S1130BB090E09C0102C0359527956A95E2F7B9014A
S1130BC06170FA01608380E0089583B390E09C0132
S1130BD002C0359527956A95E2F7B9016170FA016B
S1130BE0608380E0089580B390E09C0102C0359555
S1130BF027956A95E2F7B9016170FA01608380E094
S1130C00089581E0089581E0089581E0089580E0E9
S1130C1008958430A8F4813051F0813028F0823076
S1130C2049F0833079F409C06BBB80E0089568BB58
S1130C3080E0089565BB80E0089562BB80E008957C
S1130C4081E0089580E00895843000F56115710510
S1130C50F9F0813061F0813028F0823069F083301E
S1130C60C9F40FC08BB3FB01808380E0089588B37F
S1130C70FB01808380E0089585B3FB01808380E0DD
S1130C80089582B3FB01808380E0089581E0089594
S1130C9081E0089580E008958430E8F4813061F0C3
S1130CA0813028F0823069F08330B9F40FC08BB3FF
S1130CB080958BBB80E008958BB3809588BB80E0E2
S1130CC0089585B3809585BB80E0089582B38095AF
S1130CD082BB80E0089581E0089580E00895843027
S1130CE008F045C0683008F044C08130B1F081306C
S1130CF030F0823001F1833009F03DC02AC02BB3BB
S1130D0081E090E0AC0102C0440F551F6A95E2F700
S1130D10BA0162276BBB80E0089528B381E090E0BC
S1130D20AC0102C0440F551F6A95E2F7BA0162276D
S1130D3068BB80E0089525B381E090E0AC0102C077
S1130D40440F551F6A95E2F7BA01622765BB80E03C
S1130D50089522B381E090E0AC0102C0440F551F16
S1130D606A95E2F7BA01622762BB80E0089581E0E8
S1130D70089581E0089580E008955058BB27AA277C
S1130D800ED070C161D130F066D120F031F49F3FB4
S1130D9011F41EF456C10EF4E095E7FB4CC1E92FA3
S1130DA072D180F3BA17620773078407950718F0A6
S1130DB071F49EF58AC10EF4E0950B2EBA2FA02D86
S1130DC00B01B90190010C01CA01A0011124FF27F4
S1130DD0591B99F0593F50F4503E68F11A16F040EF
S1130DE0A22F232F342F4427585FF3CF46953795EE
S1130DF02795A795F0405395C9F77EF41F16BA0BB3
S1130E00620B730B840BBAF09150A1F0FF0FBB1F60
S1130E10661F771F881FC2F70EC0BA0F621F731FA9
S1130E20841F48F4879577956795B795F7959E3F06
S1130E3008F0B3CF9395880F08F09927EE0F979594
S1130E4087950895D4D008F481E008950CD00AC1A0
S1130E5002D140F0F9D030F021F45F3F19F0EBC03B
S1130E60511134C1EEC00FD198F39923C9F355231E
S1130E70B1F3951B550BBB27AA2762177307840789
S1130E8038F09F5F5F4F220F331F441FAA1FA9F33F
S1130E9033D00E2E3AF0E0E830D091505040E69531
S1130EA0001CCAF729D0FE2F27D0660F771F881F92
S1130EB0BB1F261737074807AB07B0E809F0BB0B81
S1130EC0802DBF01FF2793585F4F2AF09E3F5105A5
S1130ED068F0B1C0FBC05F3FECF3983EDCF386954D
S1130EE077956795B795F7959F5FC9F7880F911D1B
S1130EF09695879597F90895E1E0660F771F881F07
S1130F00BB1F621773078407BA0720F0621B730BB9
S1130F10840BBA0BEE1F88F7E0950895BCD088F0D7
S1130F209F5790F0B92F9927B751A0F0D1F0660FD1
S1130F30771F881F991F1AF0BA95C9F712C0B130EC
S1130F4081F0C3D0B1E00895C0C0672F782F8827FF
S1130F50B85F39F0B93FCCF3869577956795B3952B
S1130F60D9F73EF490958095709561957F4F8F4F9A
S1130F709F4F0895E89409C097FB3EF4909580959F
S1130F80709561957F4F8F4F9F4F9923A9F0F92F4B
S1130F9096E9BB279395F695879577956795B795C9
S1130FA0F111F8CFFAF4BB0F11F460FF1BC06F5FAF
S1130FB07F4F8F4F9F4F16C0882311F096E911C0C1
S1130FC0772321F09EE8872F762F05C0662371F0E2
S1130FD096E8862F70E060E02AF09A95660F771FF6
S1130FE0881FDAF7880F9695879597F90895990FD2
S1130FF00008550FAA0BE0E8FEEF16161706E807DF
S1131000F907C0F012161306E407F50798F0621BFF
S1131010730B840B950B39F40A2661F0232B242BD4
S1131020252B21F408950A2609F4A140A6958FEFF3
S1131030811D811D089597F99F6780E870E060E045
S113104008959FEF80EC089500240A94161617065D
S113105018060906089500240A94121613061406A5
S113106005060895092E0394000C11F4882352F008
S1131070BB0F40F4BF2B11F460FF04C06F5F7F4FC0
S11310808F4F9F4F089557FD9058440F551F59F0A7
S11310905F3F71F04795880F97FB991F61F09F3F61
S11310A079F087950895121613061406551FF2CF8A
S11310B04695F1DF08C0161617061806991FF1CFDA
S11310C086957105610508940895E894BB27662701
S11310D07727CB0197F908950BD0C4CFB5DF28F05B
S11310E0BADF18F0952309F0A6CFABCF1124EECFC9
S11310F0CADFA0F3959FD1F3950F50E0551F629F6F
S1131100F001729FBB27F00DB11D639FAA27F00D5C
S1131110B11DAA1F649F6627B00DA11D661F829F83
S11311202227B00DA11D621F739FB00DA11D621F68
S1131130839FA00D611D221F749F3327A00D611D85
S1131140231F849F600D211D822F762F6A2F112467
S11311509F5750408AF0E1F088234AF0EE0FFF1FBA
S1131160BB1F661F771F881F91505040A9F79E3FF1
S1131170510570F060CFAACF5F3FECF3983EDCF3EB
S1131180869577956795B795F795E7959F5FC1F72E
S1131190FE2B880F911D9695879597F90895A1E2E6
S11311A01A2EAA1BBB1BFD010DC0AA1FBB1FEE1FDD
S11311B0FF1FA217B307E407F50720F0A21BB30B28
S11311C0E40BF50B661F771F881F991F1A9469F7A4
S11311D060957095809590959B01AC01BD01CF0100
S10911E00895F894FFCF0E
S11311E624242424242424242424242424242424B5
S11311F602020202040506070202020200010203B9
S11312063738392F3435362A3132332D23303D2BB6
S10512160404CA
S9030000FC
